{
  "_format": "hh-sol-artifact-1",
  "contractName": "StableDebtToken",
  "sourceName": "contracts/protocol/tokenization/StableDebtToken.sol",
  "abi": [
    {
      "anonymous": false,
      "inputs": [
        {
          "indexed": true,
          "internalType": "address",
          "name": "owner",
          "type": "address"
        },
        {
          "indexed": true,
          "internalType": "address",
          "name": "spender",
          "type": "address"
        },
        {
          "indexed": false,
          "internalType": "uint256",
          "name": "value",
          "type": "uint256"
        }
      ],
      "name": "Approval",
      "type": "event"
    },
    {
      "anonymous": false,
      "inputs": [
        {
          "indexed": true,
          "internalType": "address",
          "name": "fromUser",
          "type": "address"
        },
        {
          "indexed": true,
          "internalType": "address",
          "name": "toUser",
          "type": "address"
        },
        {
          "indexed": false,
          "internalType": "address",
          "name": "asset",
          "type": "address"
        },
        {
          "indexed": false,
          "internalType": "uint256",
          "name": "amount",
          "type": "uint256"
        }
      ],
      "name": "BorrowAllowanceDelegated",
      "type": "event"
    },
    {
      "anonymous": false,
      "inputs": [
        {
          "indexed": true,
          "internalType": "address",
          "name": "user",
          "type": "address"
        },
        {
          "indexed": false,
          "internalType": "uint256",
          "name": "amount",
          "type": "uint256"
        },
        {
          "indexed": false,
          "internalType": "uint256",
          "name": "currentBalance",
          "type": "uint256"
        },
        {
          "indexed": false,
          "internalType": "uint256",
          "name": "balanceIncrease",
          "type": "uint256"
        },
        {
          "indexed": false,
          "internalType": "uint256",
          "name": "avgStableRate",
          "type": "uint256"
        },
        {
          "indexed": false,
          "internalType": "uint256",
          "name": "newTotalSupply",
          "type": "uint256"
        }
      ],
      "name": "Burn",
      "type": "event"
    },
    {
      "anonymous": false,
      "inputs": [
        {
          "indexed": true,
          "internalType": "address",
          "name": "underlyingAsset",
          "type": "address"
        },
        {
          "indexed": true,
          "internalType": "address",
          "name": "pool",
          "type": "address"
        },
        {
          "indexed": false,
          "internalType": "address",
          "name": "incentivesController",
          "type": "address"
        },
        {
          "indexed": false,
          "internalType": "uint8",
          "name": "debtTokenDecimals",
          "type": "uint8"
        },
        {
          "indexed": false,
          "internalType": "string",
          "name": "debtTokenName",
          "type": "string"
        },
        {
          "indexed": false,
          "internalType": "string",
          "name": "debtTokenSymbol",
          "type": "string"
        },
        {
          "indexed": false,
          "internalType": "bytes",
          "name": "params",
          "type": "bytes"
        }
      ],
      "name": "Initialized",
      "type": "event"
    },
    {
      "anonymous": false,
      "inputs": [
        {
          "indexed": true,
          "internalType": "address",
          "name": "user",
          "type": "address"
        },
        {
          "indexed": true,
          "internalType": "address",
          "name": "onBehalfOf",
          "type": "address"
        },
        {
          "indexed": false,
          "internalType": "uint256",
          "name": "amount",
          "type": "uint256"
        },
        {
          "indexed": false,
          "internalType": "uint256",
          "name": "currentBalance",
          "type": "uint256"
        },
        {
          "indexed": false,
          "internalType": "uint256",
          "name": "balanceIncrease",
          "type": "uint256"
        },
        {
          "indexed": false,
          "internalType": "uint256",
          "name": "newRate",
          "type": "uint256"
        },
        {
          "indexed": false,
          "internalType": "uint256",
          "name": "avgStableRate",
          "type": "uint256"
        },
        {
          "indexed": false,
          "internalType": "uint256",
          "name": "newTotalSupply",
          "type": "uint256"
        }
      ],
      "name": "Mint",
      "type": "event"
    },
    {
      "anonymous": false,
      "inputs": [
        {
          "indexed": true,
          "internalType": "address",
          "name": "from",
          "type": "address"
        },
        {
          "indexed": true,
          "internalType": "address",
          "name": "to",
          "type": "address"
        },
        {
          "indexed": false,
          "internalType": "uint256",
          "name": "value",
          "type": "uint256"
        }
      ],
      "name": "Transfer",
      "type": "event"
    },
    {
      "inputs": [],
      "name": "DEBT_TOKEN_REVISION",
      "outputs": [
        {
          "internalType": "uint256",
          "name": "",
          "type": "uint256"
        }
      ],
      "stateMutability": "view",
      "type": "function"
    },
    {
      "inputs": [],
      "name": "POOL",
      "outputs": [
        {
          "internalType": "contract ILendingPool",
          "name": "",
          "type": "address"
        }
      ],
      "stateMutability": "view",
      "type": "function"
    },
    {
      "inputs": [],
      "name": "UNDERLYING_ASSET_ADDRESS",
      "outputs": [
        {
          "internalType": "address",
          "name": "",
          "type": "address"
        }
      ],
      "stateMutability": "view",
      "type": "function"
    },
    {
      "inputs": [
        {
          "internalType": "address",
          "name": "owner",
          "type": "address"
        },
        {
          "internalType": "address",
          "name": "spender",
          "type": "address"
        }
      ],
      "name": "allowance",
      "outputs": [
        {
          "internalType": "uint256",
          "name": "",
          "type": "uint256"
        }
      ],
      "stateMutability": "view",
      "type": "function"
    },
    {
      "inputs": [
        {
          "internalType": "address",
          "name": "spender",
          "type": "address"
        },
        {
          "internalType": "uint256",
          "name": "amount",
          "type": "uint256"
        }
      ],
      "name": "approve",
      "outputs": [
        {
          "internalType": "bool",
          "name": "",
          "type": "bool"
        }
      ],
      "stateMutability": "nonpayable",
      "type": "function"
    },
    {
      "inputs": [
        {
          "internalType": "address",
          "name": "delegatee",
          "type": "address"
        },
        {
          "internalType": "uint256",
          "name": "amount",
          "type": "uint256"
        }
      ],
      "name": "approveDelegation",
      "outputs": [],
      "stateMutability": "nonpayable",
      "type": "function"
    },
    {
      "inputs": [
        {
          "internalType": "address",
          "name": "account",
          "type": "address"
        }
      ],
      "name": "balanceOf",
      "outputs": [
        {
          "internalType": "uint256",
          "name": "",
          "type": "uint256"
        }
      ],
      "stateMutability": "view",
      "type": "function"
    },
    {
      "inputs": [
        {
          "internalType": "address",
          "name": "fromUser",
          "type": "address"
        },
        {
          "internalType": "address",
          "name": "toUser",
          "type": "address"
        }
      ],
      "name": "borrowAllowance",
      "outputs": [
        {
          "internalType": "uint256",
          "name": "",
          "type": "uint256"
        }
      ],
      "stateMutability": "view",
      "type": "function"
    },
    {
      "inputs": [
        {
          "internalType": "address",
          "name": "user",
          "type": "address"
        },
        {
          "internalType": "uint256",
          "name": "amount",
          "type": "uint256"
        }
      ],
      "name": "burn",
      "outputs": [],
      "stateMutability": "nonpayable",
      "type": "function"
    },
    {
      "inputs": [],
      "name": "decimals",
      "outputs": [
        {
          "internalType": "uint8",
          "name": "",
          "type": "uint8"
        }
      ],
      "stateMutability": "view",
      "type": "function"
    },
    {
      "inputs": [
        {
          "internalType": "address",
          "name": "spender",
          "type": "address"
        },
        {
          "internalType": "uint256",
          "name": "subtractedValue",
          "type": "uint256"
        }
      ],
      "name": "decreaseAllowance",
      "outputs": [
        {
          "internalType": "bool",
          "name": "",
          "type": "bool"
        }
      ],
      "stateMutability": "nonpayable",
      "type": "function"
    },
    {
      "inputs": [],
      "name": "getAverageStableRate",
      "outputs": [
        {
          "internalType": "uint256",
          "name": "",
          "type": "uint256"
        }
      ],
      "stateMutability": "view",
      "type": "function"
    },
    {
      "inputs": [],
      "name": "getIncentivesController",
      "outputs": [
        {
          "internalType": "contract IAaveIncentivesController",
          "name": "",
          "type": "address"
        }
      ],
      "stateMutability": "view",
      "type": "function"
    },
    {
      "inputs": [
        {
          "internalType": "address",
          "name": "user",
          "type": "address"
        }
      ],
      "name": "getScaledUserBalanceAndSupply",
      "outputs": [
        {
          "internalType": "uint256",
          "name": "",
          "type": "uint256"
        },
        {
          "internalType": "uint256",
          "name": "",
          "type": "uint256"
        }
      ],
      "stateMutability": "view",
      "type": "function"
    },
    {
      "inputs": [],
      "name": "getSupplyData",
      "outputs": [
        {
          "internalType": "uint256",
          "name": "",
          "type": "uint256"
        },
        {
          "internalType": "uint256",
          "name": "",
          "type": "uint256"
        },
        {
          "internalType": "uint256",
          "name": "",
          "type": "uint256"
        },
        {
          "internalType": "uint40",
          "name": "",
          "type": "uint40"
        }
      ],
      "stateMutability": "view",
      "type": "function"
    },
    {
      "inputs": [],
      "name": "getTotalSupplyAndAvgRate",
      "outputs": [
        {
          "internalType": "uint256",
          "name": "",
          "type": "uint256"
        },
        {
          "internalType": "uint256",
          "name": "",
          "type": "uint256"
        }
      ],
      "stateMutability": "view",
      "type": "function"
    },
    {
      "inputs": [],
      "name": "getTotalSupplyLastUpdated",
      "outputs": [
        {
          "internalType": "uint40",
          "name": "",
          "type": "uint40"
        }
      ],
      "stateMutability": "view",
      "type": "function"
    },
    {
      "inputs": [
        {
          "internalType": "address",
          "name": "user",
          "type": "address"
        }
      ],
      "name": "getUserLastUpdated",
      "outputs": [
        {
          "internalType": "uint40",
          "name": "",
          "type": "uint40"
        }
      ],
      "stateMutability": "view",
      "type": "function"
    },
    {
      "inputs": [
        {
          "internalType": "address",
          "name": "user",
          "type": "address"
        }
      ],
      "name": "getUserStableRate",
      "outputs": [
        {
          "internalType": "uint256",
          "name": "",
          "type": "uint256"
        }
      ],
      "stateMutability": "view",
      "type": "function"
    },
    {
      "inputs": [
        {
          "internalType": "address",
          "name": "spender",
          "type": "address"
        },
        {
          "internalType": "uint256",
          "name": "addedValue",
          "type": "uint256"
        }
      ],
      "name": "increaseAllowance",
      "outputs": [
        {
          "internalType": "bool",
          "name": "",
          "type": "bool"
        }
      ],
      "stateMutability": "nonpayable",
      "type": "function"
    },
    {
      "inputs": [
        {
          "internalType": "contract ILendingPool",
          "name": "pool",
          "type": "address"
        },
        {
          "internalType": "address",
          "name": "underlyingAsset",
          "type": "address"
        },
        {
          "internalType": "contract IAaveIncentivesController",
          "name": "incentivesController",
          "type": "address"
        },
        {
          "internalType": "uint8",
          "name": "debtTokenDecimals",
          "type": "uint8"
        },
        {
          "internalType": "string",
          "name": "debtTokenName",
          "type": "string"
        },
        {
          "internalType": "string",
          "name": "debtTokenSymbol",
          "type": "string"
        },
        {
          "internalType": "bytes",
          "name": "params",
          "type": "bytes"
        }
      ],
      "name": "initialize",
      "outputs": [],
      "stateMutability": "nonpayable",
      "type": "function"
    },
    {
      "inputs": [
        {
          "internalType": "address",
          "name": "user",
          "type": "address"
        },
        {
          "internalType": "address",
          "name": "onBehalfOf",
          "type": "address"
        },
        {
          "internalType": "uint256",
          "name": "amount",
          "type": "uint256"
        },
        {
          "internalType": "uint256",
          "name": "rate",
          "type": "uint256"
        }
      ],
      "name": "mint",
      "outputs": [
        {
          "internalType": "bool",
          "name": "",
          "type": "bool"
        }
      ],
      "stateMutability": "nonpayable",
      "type": "function"
    },
    {
      "inputs": [],
      "name": "name",
      "outputs": [
        {
          "internalType": "string",
          "name": "",
          "type": "string"
        }
      ],
      "stateMutability": "view",
      "type": "function"
    },
    {
      "inputs": [
        {
          "internalType": "address",
          "name": "user",
          "type": "address"
        }
      ],
      "name": "principalBalanceOf",
      "outputs": [
        {
          "internalType": "uint256",
          "name": "",
          "type": "uint256"
        }
      ],
      "stateMutability": "view",
      "type": "function"
    },
    {
      "inputs": [
        {
          "internalType": "address",
          "name": "user",
          "type": "address"
        }
      ],
      "name": "scaledBalanceOf",
      "outputs": [
        {
          "internalType": "uint256",
          "name": "",
          "type": "uint256"
        }
      ],
      "stateMutability": "view",
      "type": "function"
    },
    {
      "inputs": [],
      "name": "scaledTotalSupply",
      "outputs": [
        {
          "internalType": "uint256",
          "name": "",
          "type": "uint256"
        }
      ],
      "stateMutability": "view",
      "type": "function"
    },
    {
      "inputs": [],
      "name": "symbol",
      "outputs": [
        {
          "internalType": "string",
          "name": "",
          "type": "string"
        }
      ],
      "stateMutability": "view",
      "type": "function"
    },
    {
      "inputs": [],
      "name": "totalSupply",
      "outputs": [
        {
          "internalType": "uint256",
          "name": "",
          "type": "uint256"
        }
      ],
      "stateMutability": "view",
      "type": "function"
    },
    {
      "inputs": [
        {
          "internalType": "address",
          "name": "recipient",
          "type": "address"
        },
        {
          "internalType": "uint256",
          "name": "amount",
          "type": "uint256"
        }
      ],
      "name": "transfer",
      "outputs": [
        {
          "internalType": "bool",
          "name": "",
          "type": "bool"
        }
      ],
      "stateMutability": "nonpayable",
      "type": "function"
    },
    {
      "inputs": [
        {
          "internalType": "address",
          "name": "sender",
          "type": "address"
        },
        {
          "internalType": "address",
          "name": "recipient",
          "type": "address"
        },
        {
          "internalType": "uint256",
          "name": "amount",
          "type": "uint256"
        }
      ],
      "name": "transferFrom",
      "outputs": [
        {
          "internalType": "bool",
          "name": "",
          "type": "bool"
        }
      ],
      "stateMutability": "nonpayable",
      "type": "function"
    }
  ],
  "bytecode": "0x608060405260006006553480156200001657600080fd5b50604080518082018252600e8082526d111150951513d2d15397d253541360921b60208084018281528551808701909652928552840152815191929160009162000064916003919062000098565b5081516200007a90600490602085019062000098565b506005805460ff191660ff9290921691909117905550620001349050565b828054600181600116156101000203166002900490600052602060002090601f016020900481019282601f10620000db57805160ff19168380011785556200010b565b828001600101855582156200010b579182015b828111156200010b578251825591602001919060010190620000ee565b50620001199291506200011d565b5090565b5b808211156200011957600081556001016200011e565b611dac80620001446000396000f3fe608060405234801561001057600080fd5b50600436106101da5760003560e01c806395d89b4111610104578063b9a7b622116100a2578063dd62ed3e11610071578063dd62ed3e14610723578063e748489014610751578063e78c9b3b14610759578063f731e9be1461077f576101da565b8063b9a7b62214610546578063c04a8a101461054e578063c222ec8a1461057a578063c634dfaa146102f5576101da565b8063a9059cbb116100de578063a9059cbb146104ce578063b16a19de146104fa578063b1bf962d14610502578063b3f1c93d1461050a576101da565b806395d89b41146104985780639dc29fac146104a0578063a457c2d71461036f576101da565b8063395093511161017c57806375d264131161014b57806375d2641314610413578063797743381461041b57806379ce6b8c1461045057806390f6fcf214610490576101da565b8063395093511461036f5780636bd76d241461039b57806370a08231146103c95780637535d246146103ef576101da565b806318160ddd116101b857806318160ddd146102db5780631da24f3e146102f557806323b872dd1461031b578063313ce56714610351576101da565b806306fdde03146101df578063095ea7b31461025c5780630afbcdc91461029c575b600080fd5b6101e7610787565b6040805160208082528351818301528351919283929083019185019080838360005b83811015610221578181015183820152602001610209565b50505050905090810190601f16801561024e5780820380516001836020036101000a031916815260200191505b509250505060405180910390f35b6102886004803603604081101561027257600080fd5b506001600160a01b03813516906020013561081d565b604080519115158252519081900360200190f35b6102c2600480360360208110156102b257600080fd5b50356001600160a01b0316610865565b6040805192835260208301919091528051918290030190f35b6102e3610882565b60408051918252519081900360200190f35b6102e36004803603602081101561030b57600080fd5b50356001600160a01b0316610894565b6102886004803603606081101561033157600080fd5b506001600160a01b038135811691602081013590911690604001356108a7565b6103596108ef565b6040805160ff9092168252519081900360200190f35b6102886004803603604081101561038557600080fd5b506001600160a01b0381351690602001356108f8565b6102e3600480360360408110156103b157600080fd5b506001600160a01b0381358116916020013516610947565b6102e3600480360360208110156103df57600080fd5b50356001600160a01b0316610974565b6103f76109ec565b604080516001600160a01b039092168252519081900360200190f35b6103f7610a04565b610423610a0e565b6040805194855260208501939093528383019190915264ffffffffff166060830152519081900360800190f35b6104766004803603602081101561046657600080fd5b50356001600160a01b0316610a44565b6040805164ffffffffff9092168252519081900360200190f35b6102e3610a66565b6101e7610a6c565b6104cc600480360360408110156104b657600080fd5b506001600160a01b038135169060200135610acd565b005b610288600480360360408110156104e457600080fd5b506001600160a01b0381351690602001356108a7565b6103f7610e33565b6102e3610e42565b6102886004803603608081101561052057600080fd5b506001600160a01b03813581169160208101359091169060408101359060600135610e4c565b6102e36111a4565b6104cc6004803603604081101561056457600080fd5b506001600160a01b0381351690602001356111a9565b6104cc600480360360e081101561059057600080fd5b6001600160a01b038235811692602081013582169260408201359092169160ff606083013516919081019060a0810160808201356401000000008111156105d657600080fd5b8201836020820111156105e857600080fd5b8035906020019184600183028401116401000000008311171561060a57600080fd5b91908080601f016020809104026020016040519081016040528093929190818152602001838380828437600092019190915250929594936020810193503591505064010000000081111561065d57600080fd5b82018360208201111561066f57600080fd5b8035906020019184600183028401116401000000008311171561069157600080fd5b91908080601f01602080910402602001604051908101604052809392919081815260200183838082843760009201919091525092959493602081019350359150506401000000008111156106e457600080fd5b8201836020820111156106f657600080fd5b8035906020019184600183028401116401000000008311171561071857600080fd5b509092509050611245565b6102e36004803603604081101561073957600080fd5b506001600160a01b03813581169160200135166108f8565b6104766114a9565b6102e36004803603602081101561076f57600080fd5b50356001600160a01b03166114b6565b6102c26114d1565b60038054604080516020601f60026000196101006001881615020190951694909404938401819004810282018101909252828152606093909290918301828280156108135780601f106107e857610100808354040283529160200191610813565b820191906000526020600020905b8154815290600101906020018083116107f657829003601f168201915b5050505050905090565b6040805162461bcd60e51b81526020600482015260166024820152751054141493d5905317d393d517d4d5541413d495115160521b6044820152905160009181900360640190fd5b600080610871836114ea565b610879611505565b91509150915091565b600061088f603b5461150b565b905090565b600061089f826114ea565b90505b919050565b6040805162461bcd60e51b81526020600482015260166024820152751514905394d1915497d393d517d4d5541413d495115160521b6044820152905160009181900360640190fd5b60055460ff1690565b6040805162461bcd60e51b815260206004820152601760248201527f414c4c4f57414e43455f4e4f545f535550504f525445440000000000000000006044820152905160009181900360640190fd5b6001600160a01b038083166000908152603a60209081526040808320938516835292905220545b92915050565b600080610980836114ea565b6001600160a01b0384166000908152603d6020526040902054909150816109ac576000925050506108a2565b6001600160a01b0384166000908152603c60205260408120546109d790839064ffffffffff16611553565b90506109e38382611567565b95945050505050565b603e546501000000000090046001600160a01b031690565b600061088f611625565b6000806000806000603b549050610a23611505565b610a2c8261150b565b603e54919790965091945064ffffffffff1692509050565b6001600160a01b03166000908152603c602052604090205464ffffffffff1690565b603b5490565b60048054604080516020601f60026000196101006001881615020190951694909404938401819004810282018101909252828152606093909290918301828280156108135780601f106107e857610100808354040283529160200191610813565b610ad56109ec565b6001600160a01b0316610ae6611634565b6001600160a01b03161460405180604001604052806002815260200161323960f01b81525090610b945760405162461bcd60e51b81526004018080602001828103825283818151815260200191508051906020019080838360005b83811015610b59578181015183820152602001610b41565b50505050905090810190601f168015610b865780820380516001836020036101000a031916815260200191505b509250505060405180910390fd5b50600080610ba184611638565b92509250506000610bb0610882565b6001600160a01b0386166000908152603d6020526040812054919250908190868411610be5576000603b819055600255610c67565b610bef8488611691565b600281905591506000610c0d610c04866116d3565b603b5490611567565b90506000610c24610c1d8a6116d3565b8490611567565b9050818110610c405760006002819055603b8190559450610c64565b610c5c610c4c856116d3565b610c568484611691565b90611751565b603b81905594505b50505b85871415610ca5576001600160a01b0388166000908152603d60209081526040808320839055603c9091529020805464ffffffffff19169055610cd3565b6001600160a01b0388166000908152603c60205260409020805464ffffffffff19164264ffffffffff161790555b603e805464ffffffffff19164264ffffffffff1617905586851115610d73576000610cfe8689611691565b9050610d0b898287611858565b6040805182815260208101899052808201889052606081018490526080810186905260a0810185905290516001600160a01b038b169182917fc16f4e4ca34d790de4c656c72fd015c667d688f20be64eea360618545c4c530f9181900360c00190a350610de8565b6000610d7f8887611691565b9050610d8c89828761191d565b6040805182815260208101899052808201889052606081018690526080810185905290516001600160a01b038b16917f44bd20a79e993bdcc7cbedf54a3b4d19fb78490124b6b90d04fe3242eea579e8919081900360a00190a2505b6040805188815290516000916001600160a01b038b16917fddf252ad1be2c89b69c2b068fc378daa952ba7f163c4a11628f55a4df523b3ef9181900360200190a35050505050505050565b603f546001600160a01b031690565b600061088f611505565b6000610e566109ec565b6001600160a01b0316610e67611634565b6001600160a01b03161460405180604001604052806002815260200161323960f01b81525090610ed85760405162461bcd60e51b8152602060048201818152835160248401528351909283926044909101919085019080838360008315610b59578181015183820152602001610b41565b50610ee1611c65565b846001600160a01b0316866001600160a01b031614610f0557610f0585878661195f565b600080610f1187611638565b9250925050610f1e610882565b808452603b546080850152610f339087611a27565b60028190556020840152610f46866116d3565b6040840152610fa4610f60610f5b8489611a27565b6116d3565b6040850151610c5690610f739089611567565b610f9e610f7f876116d3565b6001600160a01b038d166000908152603d602052604090205490611567565b90611a27565b60608401819052604080518082019091526002815261373960f01b6020820152906fffffffffffffffffffffffffffffffff10156110235760405162461bcd60e51b8152602060048201818152835160248401528351909283926044909101919085019080838360008315610b59578181015183820152602001610b41565b5060608301516001600160a01b0388166000908152603d6020908152604080832093909355603c8152919020805464ffffffffff421664ffffffffff199182168117909255603e805490911690911790558301516110b990611084906116d3565b610c5661109e86604001518961156790919063ffffffff16565b610f9e6110ae88600001516116d3565b608089015190611567565b603b81905560808401526110d8876110d18884611a27565b8551611858565b6040805187815290516001600160a01b038916916000917fddf252ad1be2c89b69c2b068fc378daa952ba7f163c4a11628f55a4df523b3ef9181900360200190a3866001600160a01b0316886001600160a01b03167fc16f4e4ca34d790de4c656c72fd015c667d688f20be64eea360618545c4c530f888585886060015189608001518a6020015160405180878152602001868152602001858152602001848152602001838152602001828152602001965050505050505060405180910390a350159695505050505050565b600181565b80603a60006111b6611634565b6001600160a01b03908116825260208083019390935260409182016000908120918716808252919093529120919091556111ee611634565b6001600160a01b03167fda919360433220e13b51e8c211e490d148e61a3bd53de8c097194e458b97f3e1611220610e33565b604080516001600160a01b039092168252602082018690528051918290030190a35050565b600061124f611a81565b60075490915060ff16806112665750611266611a86565b80611272575060065481115b6112ad5760405162461bcd60e51b815260040180806020018281038252602e815260200180611d49602e913960400191505060405180910390fd5b60075460ff161580156112cd576007805460ff1916600117905560068290555b6112d686611a8c565b6112df85611aa3565b6112e887611ab6565b603e805465010000000000600160c81b031916650100000000006001600160a01b038d811691820292909217909255603f80546001600160a01b03199081168d841690811790925560408054909116928c169283178155805192835260ff8b1660208085019190915260a09184018281528b51928501929092528a5192937f40251fbfb6656cfa65a00d7879029fec1fad21d28fdcff2f4f68f52795b74f2c938e938e938e938e938e938e9390916060840191608085019160c08601918a019080838360005b838110156113c65781810151838201526020016113ae565b50505050905090810190601f1680156113f35780820380516001836020036101000a031916815260200191505b50848103835287518152875160209182019189019080838360005b8381101561142657818101518382015260200161140e565b50505050905090810190601f1680156114535780820380516001836020036101000a031916815260200191505b508481038252858152602001868680828437600083820152604051601f909101601f19169092018290039b50909950505050505050505050a3801561149d576007805460ff191690555b50505050505050505050565b603e5464ffffffffff1690565b6001600160a01b03166000908152603d602052604090205490565b603b5460009081906114e28161150b565b925090509091565b6001600160a01b031660009081526020819052604090205490565b60025490565b600080611516611505565b9050806115275760009150506108a2565b603e5460009061153f90859064ffffffffff16611553565b905061154b8282611567565b949350505050565b6000611560838342611acc565b9392505050565b6000821580611574575081155b156115815750600061096e565b816b019d971e4fe8401e74000000198161159757fe5b0483111560405180604001604052806002815260200161068760f31b815250906116025760405162461bcd60e51b8152602060048201818152835160248401528351909283926044909101919085019080838360008315610b59578181015183820152602001610b41565b50506b033b2e3c9fd0803ce800000091026b019d971e4fe8401e74000000010490565b6040546001600160a01b031690565b3390565b600080600080611647856114ea565b90508061165f5760008060009350935093505061168a565b60006116748261166e88610974565b90611691565b9050816116818183611a27565b90955093509150505b9193909250565b600061156083836040518060400160405280601e81526020017f536166654d6174683a207375627472616374696f6e206f766572666c6f770000815250611ba2565b6000633b9aca0082810290839082041460405180604001604052806002815260200161068760f31b8152509061174a5760405162461bcd60e51b8152602060048201818152835160248401528351909283926044909101919085019080838360008315610b59578181015183820152602001610b41565b5092915050565b604080518082019091526002815261035360f41b6020820152600090826117b95760405162461bcd60e51b8152602060048201818152835160248401528351909283926044909101919085019080838360008315610b59578181015183820152602001610b41565b5060408051808201909152600280825261068760f31b60208301528304906b033b2e3c9fd0803ce80000008219048511156118355760405162461bcd60e51b8152602060048201818152835160248401528351909283926044909101919085019080838360008315610b59578181015183820152602001610b41565b5082816b033b2e3c9fd0803ce80000008602018161184f57fe5b04949350505050565b6001600160a01b03831660009081526020819052604090205461187b8184611a27565b6001600160a01b03808616600090815260208190526040908190209290925590541615611917576040805481516318c39f1760e11b81526001600160a01b0387811660048301526024820186905260448201859052925192909116916331873e2e9160648082019260009290919082900301818387803b1580156118fe57600080fd5b505af1158015611912573d6000803e3d6000fd5b505050505b50505050565b6001600160a01b038316600090815260208181526040918290205482518084019093526002835261038360f41b918301919091529061187b9082908590611ba2565b6040805180820182526002815261353960f01b6020808301919091526001600160a01b038087166000908152603a835284812091871681529152918220546119a8918490611ba2565b6001600160a01b038086166000818152603a60209081526040808320948916808452949091529020839055919250907fda919360433220e13b51e8c211e490d148e61a3bd53de8c097194e458b97f3e1611a00610e33565b604080516001600160a01b039092168252602082018690528051918290030190a350505050565b600082820183811015611560576040805162461bcd60e51b815260206004820152601b60248201527f536166654d6174683a206164646974696f6e206f766572666c6f770000000000604482015290519081900360640190fd5b600190565b303b1590565b8051611a9f906003906020840190611c94565b5050565b8051611a9f906004906020840190611c94565b6005805460ff191660ff92909216919091179055565b600080611ae08364ffffffffff8616611691565b905080611af757611aef611bfc565b915050611560565b6000198101600060028311611b0d576000611b12565b600283035b90506301e1338087046000611b278280611567565b90506000611b358284611567565b905060006002611b4f84611b498a8a611c0c565b90611c0c565b81611b5657fe5b04905060006006611b6d84611b4989818d8d611c0c565b81611b7457fe5b049050611b9281610f9e8481611b8a8a8e611c0c565b610f9e611bfc565b9c9b505050505050505050505050565b60008184841115611bf45760405162461bcd60e51b8152602060048201818152835160248401528351909283926044909101919085019080838360008315610b59578181015183820152602001610b41565b505050900390565b6b033b2e3c9fd0803ce800000090565b600082611c1b5750600061096e565b82820282848281611c2857fe5b04146115605760405162461bcd60e51b8152600401808060200182810382526021815260200180611d286021913960400191505060405180910390fd5b6040518060a0016040528060008152602001600081526020016000815260200160008152602001600081525090565b828054600181600116156101000203166002900490600052602060002090601f016020900481019282601f10611cd557805160ff1916838001178555611d02565b82800160010185558215611d02579182015b82811115611d02578251825591602001919060010190611ce7565b50611d0e929150611d12565b5090565b5b80821115611d0e5760008155600101611d1356fe536166654d6174683a206d756c7469706c69636174696f6e206f766572666c6f77436f6e747261637420696e7374616e63652068617320616c7265616479206265656e20696e697469616c697a6564a2646970667358221220712c2e3a972617d3d7580950b183079501ce9daa5f002d06e20baa3543d0108564736f6c634300060c0033",
  "linkReferences": {},
  "deployedLinkReferences": {}
}